:020000040000FA
:1000000002005000000080FB120080B900030200D3
:100010003A900200AA82AB839000837861790180D4
:1000200015E493A3AC82AD838A828B83F0A3AA826A
:10003000AB838C828D83D8E9D9E775822F75831DB8
:1000400074001200627582037583007400120062EE
:1000500075D0007581BF751000751102759F000283
:100060000008C09FF59FE473D09F22D083D082C048
:100070009FE493C0E0740193C0E0740293F59F2263
:10008000790122252E303366000A0000000043006B
:10009000E0FF440000000030313233343536373869
:1000A0003941424344454600286E756C6C20706FA0
:1000B000696E74657229003F3F3F000000807F0039
:1000C00000803FF9021550B743BA510000204100AB
:1000D000E7DB2E0000A04010000000080000000A2E
:1000E00000000012006B441C0012006B531C001235
:1000F000006B701C0012006BAE1C0012006BD01C59
:100100000012006BD91C0012006B7A1E0012006BEB
:10011000DA1D0012006B041E0012006BF50B0012BA
:10012000006B131100C008C3E096F50808A3E09621
:10013000420808A3E096420808A3E0964208A2D22B
:1001400065D033E5087001D3D00822080808E630EE
:10015000E711120987120163080808C64480C6180F
:10016000181822181818E9799EC608CAC608CBC6FE
:1001700008CCC6C370207996CACBCC7019798ECBC7
:10018000CC70137986CC700EF9802ACA33CACB336F
:10019000CBCC33CC331930E7F2CCCBCA335014700C
:1001A00004EA30E00DE4CA3ACACB3BCBCC3CCC509D
:1001B0000209C3E913C6CC182313C6CB18C6CA1844
:1001C000C6F92212020320F01430E72B74FFFCFB67
:1001D000FA747F8022E4FCFBFA7480801AB48008F1
:1001E000BC00F2BB00EF800F50EBF9E4C39AFAE4D5
:1001F0009BFBE49CFCE499C6CC18C6CB18C6CA1875
:10020000C6F922E4C9C608CAC608CBC6D333030858
:10021000CCC63392F0C3947F402E94184019C9B9CC
:100220000704CACBCC225025C309CA33CACB33CB6F
:10023000CC33CC33D9F422F4600DC9CCC313CB1327
:10024000CBCA13CAD9F6CC22E4FCFBFA2214FCFB7D
:10025000FA22E6C33318461846184622E7C3331974
:10026000471947194722181818E6084608700AE681
:1002700008C3337005E633F4220822191919E70977
:100280004709700AE709C3337005E733F4220922EE
:10029000E6084608C3134608336002E633F422E753
:1002A000094709C3134709336002E733F4221202F6
:1002B00090602512029F6020120252700302025CBD
:1002C000080808E76670101819E766700A1819E739
:1002D0006670041819E76622F422120290601C125C
:1002E000029F6017120252700712025C7001D32243
:1002F000C0D012025C7006D0D0B322C32233D0D05B
:10030000501430E0F6C3E7960809E7960809E79627
:100310000809E796B32220E0D5E6970809E6970892
:1003200009E6970809E697B322120290601B1202B1
:100330009F6016120252700712025C600CB322C05A
:10034000D012025C7005D0D022C32233D0D050131B
:1003500030E0EBC3E7960809E7960809E796080935
:10036000E7962220E0E4E6970809E6970809E69771
:100370000809E6972200120290604F12029F601255
:10038000E7548066F6120266701112025C703B0937
:100390000909F4F618F618F618F62212027B701501
:1003A00012025208080860EAE6447FF618768018C0
:1003B000E4F618F622120252601612025C7012E481
:1003C000F608F608F608E65480F609090918181820
:1003D00022EAC0E0EBC0E0ECC0E0EDC0E0E687F070
:1003E000A4FBACF008E687F0A42CFCE435F0FA1886
:1003F00009E687F0A42C4B60027401CA35F0FCE4D6
:1004000033FB09E687F0D2F7A42CCB35F0FC1908B2
:10041000E687F0A42BCC35F0FBE433FD0819E68722
:10042000F0D2E7A42C4ACB35F0CD3400FC09E687A6
:10043000F0D2E7A42DCC35F0FDE433FA0918E687B5
:10044000F0D2F7A42CCD35F0CA3400FC08E687F0D2
:10045000D2E7D2F7A42ACC35F07A7E20E70B0ACB7C
:1004600033CBCD33CDCC33CC33CB3350147004ED00
:1004700030E00ED2F1E4CD3DCDCC3CCC3B5005DAA2
:1004800005C2F1EB547FC63308E63392F0FBE73345
:1004900009E733C39A502D2B70190C0D4C4D701574
:1004A0001806E608C333700D20F10AA2F013F6E433
:1004B00018800B4024E4F630F002768018F618F627
:1004C00018F68024D33B14501074FFA2F013F618D2
:1004D0007680E418F618F6800FA2F013F618E633CB
:1004E00003F618ECF618EDF6D0E0FDD0E0FCD0E015
:1004F000FBD0E0FA2212029F6046120290603DE9B2
:10050000687008F618F618F618F622748067F71265
:100510000529090909748067F722120290601D12EB
:10052000029F7005191919801A120266701F1202B3
:100530007BC37003E667331919194007181818228E
:1005400008080874FFF618F618F618F62212027B4F
:10055000601712025C702192F0120252701950174B
:1005600020F014080808090909E7F61819E7F61831
:1005700019E7F61819E7F62212025260E6E86970E8
:100580001F0808E62480F608E436F618547FB47F86
:100590000CE654806007F6E418F618F622181822C4
:1005A000E9C6CC08C6CD08C6CE08C6CFC0E0E8C0B4
:1005B000E0EAC0E0EBC0E009E9F809E7FA09E7FB87
:1005C000E6F918E6F8C3EC98ED99EE9AEBC2E7F578
:1005D000F0EFC2E795F0500E600CEBCFFBEACEFADD
:1005E000E9CDF9E8CCF8EAA2E7D2E7FAEB33FB135E
:1005F000F5F0EEA2E7D2E7FEEF33FFC5F013A2E776
:1006000030E601B313C5F0C3C0E0C0F07F00C39B68
:10061000FB605B9418600C401AD0E023F9D0E0F83E
:100620000206F88AF0E9486003D2F0E4AFF0FAF984
:10063000F8803BEB30E40D89F0EA6003D2F0E4AFE0
:10064000F0F9CAF8EB30E30D88F0EF6002D2F0AFBA
:10065000F0E4CAC9F8EB54076014FBC3EA13FAE9E3
:1006600013F9E813F8EF135002D2E0FFDBEDD0E00E
:10067000C0E030E739C3E49FFFF5F0EC98FC42F0AE
:10068000ED99FD42F0EE9AFE42F0D0E0F9D0E0F8AC
:10069000E5F0607AE923F9EE20E742D8028067C3EB
:1006A000EF33FFEC33FCED33FDEE33FE80EAEC2854
:1006B000FCED39FDEE3AFED0E023F9D0E0F840023F
:1006C000801BC3EE13FEED13FDEC13FCEF13500281
:1006D000D2E0FF08B800067F7F74FF802EEF335012
:1006E000178CF020F00260100CBC000C0DBD00084F
:1006F0000EBE000408E860DFE933E813FFEE2313C1
:10070000FE4F4D4C8008E95480FFE4FEFDFCEE33C3
:10071000EF33F47004FCFD7E80D0E0FBD0E0FAD033
:10072000E0F8D0E0CFC618CEC618CDC618CCC6F9B2
:100730002212029070041818182212029F700D7471
:10074000FFF61819F61819F61819F622E7548066FC
:10075000F6120252700F12025C70F014F608F608DE
:10076000F608F680D112025C700CF608F608768066
:1007700008E6447F80EC12027E700C12026960BFB2
:10078000E65480F6E480BB120269700519191980DD
:10079000A5E869700C763F18768018F618F6E8F927
:1007A00022E6CDC0E018ECC0E0E633CD33CDD31364
:1007B000F6E719FCE7191933CC33C3947F400ECD0B
:1007C0009D502408E65480F6E418F6800FF4043DAA
:1007D00014501408E6447FF6187680E418F618F6EC
:1007E000D0E0FCD0E0FD22CCD313CCFD18E4C6CB86
:1007F000C0E018E4C6CAC0E00808ED08C633E61336
:10080000F618E433C675F003C3CA97CA09CB97CB71
:10081000199C40047D08802EBD00030208DA16B63C
:10082000FF050606081618C3CA33CACB33CB33CA32
:1008300027CA09CB37CB193CC37D08803E187D08F9
:1008400020E75CC633C6CA33CACB33CB33DDF1D520
:10085000F0EB30E77BCA97CA09CB974ACB199C408B
:100860006F4B7025E620E0218066187D08C3CA978B
:10087000CA09CB97CB199CD3C633C6CA33CACB336C
:10088000CB3350C9DDE7D5F0E1D3E4C636C608C6A0
:1008900036C608C636C608C636C61818188031C30C
:1008A000CA97CA09CB97CB199CB34097C633C6CA1F
:1008B00033CACB33CB33DD34D5F02EC6A2E0C640ED
:1008C000C8CA27CA09CB37194A70BECB3CB480B915
:1008D0000808E63308E633601F181818D0E0FAD08D
:1008E000E0FBD0E0FCD0E0FD22187D08CA27CA0951
:1008F000CB37CB193CD3808013F618E4B67F11F6C2
:1009000018B6FF0EF618C60470D20808768080CAA2
:10091000F618F618F680C5E4CFC0E0E4CEC0E0E4F7
:10092000CDC0E0E4CCC0E075F020C3E633F608E6C5
:1009300033F608E633F608E633F6181818EC33FCFD
:10094000ED33FDEE33FEEF33FFC3EC9709ED97096E
:10095000EE9709EF97191919400FFFEC97FC09ED75
:1009600097FD09EE97FE191906D5F0BEECF709EDD3
:10097000F709EEF709EFF7191919D0E0FCD0E0FDFF
:10098000D0E0FED0E0FF22181818E4C396F608E481
:1009900096F608E496F608E496F622E0F608A3E058
:1009A000F608A3E0F608A3E0F622E6F008A3E6F0D6
:1009B00008A3E6F008A3E6F022E0FAA3E0FBA3E038
:1009C000FCA3E0FD22EAF0A3EBF0A3ECF0A3EDF032
:1009D00022CAC0E0E6F0A308DAFAD0E0FA22CAC0E0
:1009E000E0E0A3C582CCC582C583CDC583F0A3C595
:1009F00082CCC582C583CDC583DAE6D0E0CA22C3E6
:100A0000E498F8E499F9120A408026C3E49AFAE4DB
:100A10009BFBE920E7E9120A40E498F8E499F922FF
:100A2000C3E498F8E499F9120A40E498F8E499F9D3
:100A3000C3E49AFAE49BFB22EB20E7CFE920E7E04E
:100A4000B90010BB0008E88AF084F8AAF022E4FBA1
:100A5000C8FA22EB70227B10C833C8C933C933509F
:100A600007C39AC3DBF280069A50012ADBEAC83337
:100A7000F4C8C933F4C9FA2275F008E4C833C8C908
:100A800033C933C99AC99B5004C92AC93BD5F0EC74
:100A9000FBC833F4C8E4C9FA22600C08C6C313C605
:100AA00018C613C6D5E0F422251010AF08F5104083
:100AB0000215118008F51040021511D2AF22C0D0E6
:100AC000251010AF08F510500205118008F51050E0
:100AD000020511D2AFD0D0222510F58210AF08F553
:100AE00010400215118008F51040021511D2AF8593
:100AF0001183222510F582E43511F58322E4732554
:100B000010C582C0E0E51134FFC583C0E0E510C325
:100B1000958224F810AF088583118582108008859E
:100B20008311858210D2AFCEF0A3E520F0A3780820
:100B3000E608F0A3DEFAEFF0A3E58124FAF8E60870
:100B4000F0A3E608F0A3E608F0A30808E608F0A37F
:100B5000E608F0A315811581D0E0FED0E0F81581FC
:100B600015811581E8C0E0EEC0E022851183851073
:100B700082E0A3FEE0A3F5207808E0A3F608DFFA00
:100B8000E0A3FFE0A3C0E0E0A3C0E0E0A3C0E0E09A
:100B9000A3C0E0E0A3C0E010AF08858210858311F8
:100BA0008008858210858311D2AFD083D082020065
:100BB0006874048006740280027401C0E0F40412B8
:100BC0000AD8D0E01209D12274028000CCC0E0ED36
:100BD000C0E0E510C39CCCAD1150011D10AF068CD8
:100BE000108D1180068C108D11D2AF1209DED0E06D
:100BF000FDD0E0FC2274F0120AFF74FD120AA87402
:100C000002120AF3E9F08A088B098C0A8D0B74151D
:100C1000120AF3E0FEA3E0FF851082851183E4F061
:100C2000A3F08E828F83A3AA82AB83900238780CC4
:100C300012099B7808790C1202AE70188E828F838D
:100C400074691210D4746EF0A37466F0A30A0AAB30
:100C50008302106F780879081202AE60118E828FBD
:100C600083746E1210D47461F0A3746E80DD9002F0
:100C70003C780C12099B7808790C1202DA500302B6
:100C80000D1F900210780C12099B7808790C120243
:100C9000AE6003020D737417120AF3E07003020DC5
:100CA000B5851082851183C082C0837413120AF344
:100CB000121B12D083D0821210AD502C8510828569
:100CC0001183C3E094FCA3E094FFA2D265D033402B
:100CD000177402120AF3E4121BE6F97413120AF3F2
:100CE000C3E098F0A3E099F07413120AF31210CA4B
:100CF0007418120AF3E07003020DB27417120AF3AB
:100D0000E4020DB4900240780C12099B7808790C2B
:100D1000120731851082851183E0240A121C23906A
:100D20000244780C12099B7808790C1202DA40D43C
:100D3000900248780C12099B7808790C1202DA406C
:100D400003020C96900248780C12099B7808790CE3
:100D5000120731121C1A80D8900240780C12099B9D
:100D60007808790C120375851082851183E024F6CA
:100D70001210CD90024C780C12099B7808790C1255
:100D8000032940D490023C780C12099B7808790C16
:100D90001203294003020C96900248780C12099B1A
:100DA0007808790C1203758510828511831210CA98
:100DB00080D27401F07402120AF3E060077A007BBB
:100DC00000020EC11210B9507D8E828F837430F0F4
:100DD000EAFEEBFF7413120AF3E0FCA3E0FDEC4D16
:100DE00070087418120AF3E0600B8E828F83742EE1
:100DF000F0A30EAF837A007B0080118E828F837404
:100E0000301210F57413120AF31210CAEA24FF1AF2
:100E1000EB34FFFB8510828511831210A1500B74F7
:100E200013120AF3121B164970D1851082851183A3
:100E300074FFC39CF874FF9DF91210AD5003020FAC
:100E40008F7A01020DBF851082851183121B12C398
:100E5000E498FAE499FB806985080C85090D850AF8
:100E60000E850B0F780C1201C3AC0CE50D3395E029
:100E7000F50EF50F780C12014B7808790C1204F579
:100E8000900248780C12099B7808790C120375ECD3
:100E90001210EFEAF8EBF9E824010AE93400FBE864
:100EA00049701E7413120AF3121B16497008741845
:100EB000120AF3E0600B8E828F83742EF0A30EAFC4
:100EC000837413120AF31210A1508D900250780C03
:100ED00012099B7808790C1202DA4003020F8F7C0A
:100EE00001EE24FFF8EF34FFF97415120AF3E0F570
:100EF00008A3E0F50988828983E0642E6010E02C65
:100F0000F0643A70077430F07C0180027C00E8FAEB
:100F1000E9FBEA24FF18EB34FFF9C3E5089AE50979
:100F20009B40D2ECA2E050677402120AF3E06036F4
:100F3000EEF8EF800A12108CE824FF18E934FFF96C
:100F4000C3E50898E509995018121079E0642E70ED
:100F5000E4E824FEF582E934FFF583121086F98077
:100F6000D7121C1A801E8E828F83A3AE82AF83EEAF
:100F7000F8EF8006121079121086F9C3E50898E59B
:100F8000099940F07415120AF3121B317431F07490
:100F900017120AF3E07005801A1EAF83EE24FFF5E6
:100FA00082EF34FFF583E0643060EEE0642E70037E
:100FB0001EAF837402120AF3E0700302106B12106A
:100FC000F1A3A9831210B98E828F835014742DF06F
:100FD0000EE9FF851082851183121B5A1210E280E0
:100FE00006742BF00EE9FF7C007D00EE240AFEEF74
:100FF0003400FFEC24010CED3400FD121093120AB2
:1010000038EA1210EF121093120A381210FC4970CD
:10101000E2C3EC9402ED121AC340D8ECFAEDFBC324
:10102000E49CF8E49DF9EE28F582EF39F583E0C001
:10103000E0C3E49AF8E49BF9EE28F8EF39F9E82CDC
:10104000F8E93DF9E824F5F582E934FFF583D0E0CD
:10105000F0EC24FF1CED34FFFDC3EC9401ED121AFB
:10106000C350BCEE24F6FEEF34FFFFEEFAEFFB7444
:1010700003120ABE7F08020B6BE824FFFAE934FF73
:10108000FB8A828B832212108C18EB22E0888289E3
:1010900083F022851082851183121B677A0A7B00F8
:1010A00022C3E09AA3E09BA2D265D03322C3E0988A
:1010B000A3E099A2D265D03322851082851183C323
:1010C000A3E09400A2D265D03322E024FFF0A3E095
:1010D00034FFF022F0EAFEEBFF8E828F8322A3E042
:1010E0003400F9851082851183E8F0A3E9F0222409
:1010F000308E828F83F0A3AE82AF832285108285EB
:10110000118312110622E8F0A3E9F08510828511FF
:1011100083E02274F0120AFF74B0120AA8851082CC
:10112000851183121BCC7418120AF3ECF0A3EDF0B6
:10113000740F120AF3E4F0A380227460120AF3120F
:101140001B027404120AF3E0F97418120AF3121B5A
:1011500031120AFD740F120AF3121ACBF0121B455A
:10116000FA121C05120AF3EAF074256A6010E070A6
:10117000C9740F120AF3121B027450021071121B71
:101180004564257019851082851183E024010812B9
:1011900010DE7460120AF3121B02792580AB740E04
:1011A000120AF3E4F0740D120AF3E4F0740C120A5C
:1011B000F3E4F07405120AF3E4F0741E120AF3A8C3
:1011C00082A9837402120AF380157405120AF3E0EF
:1011D00070077405120AF3EAF085108285118312F4
:1011E0001102121AF9121B8CFA24E060DD24FD6052
:1011F0001724F860DD24FE600624FD600F80117462
:101200000C120AF3E00480D0740D80F5740E80F1A6
:10121000121B8C642A705B7462120AF3121B97FB18
:101220008A828B83E0FCA3E0FD740A120AF3ECF0DF
:10123000A3EDF0EA24020A0AEB3400FB7462120AFE
:10124000F3121BC4740A120AF31210BF501F740A5F
:10125000120AF3121B02C3E49AFAE49BFB740A120B
:101260000AF3121BCC740C120AF3E004F01210E320
:10127000804A740A120AF3E4F0A3802D740A120A59
:10128000F3121B1675F00AA4F8AAF075F00AE9A487
:101290002AF9E50828F8E439F9E824D0F8E934FF18
:1012A000F9740A120AF3121C2A121BE6F5838882CB
:1012B000E0F50874D02508C3940A40C0740C120AE3
:1012C000F3E06007740E120AF3E4F0121B45642E7B
:1012D000600302135E851082851183E0240108A358
:1012E000E03400F91210FC121B36E0642A702C74F2
:1012F00062120AF3121B4BF8A3E0F988828983E09B
:10130000FEA3E0FFE824020808E93400F974621241
:101310000AF3121B7F121C2AF080477E007F008593
:101320001082851183121B5474D02508C3940A506F
:1013300031EE75F00AA4FEA8F075F00AEFA428FFBC
:10134000E5082EF8E43FF9E824D0FEE934FFFF85F4
:101350001082851183E02401F81210DE80C17EFF27
:101360007FFF7A00851082851183121AF48510821E
:10137000851183E0FBA3E0F5838B82E024B4600851
:1013800024E4600524FC70040A1210E3121B45FBE0
:10139000121C05120AF3EBF0700302196924BB70EA
:1013A0000302182F24FE700302181124EF700302A9
:1013B000155B24F570030214601470030216001408
:1013C000700302182F14700302182D1470030218F2
:1013D0001124FE700302160024FB60241470030223
:1013E000154B14700302155B24FD7003021499243D
:1013F000FE700302155B24FD700302155B02197574
:101400007462120AF3121BBE120AF31210E9EAA266
:10141000E0740F5033120AF3E0FCA3E0FD3395E0D3
:10142000FE7406120AF3121B9FECF0A3EDF0A3EE7C
:10143000F0A3F07462120AF3121BA6120AF3121B35
:101440007FE8F0A3E902115C120AF3121B12740682
:10145000120AF3121B97F5838A82E8F0A3E980D27F
:101460007462120AF3121B9FE0C0E0741E120AF3AA
:10147000D0E0F07462120AF3121BA6120AF3121BD8
:101480007F1210E9741F120AF3A882A98374121242
:101490000AF3E8F0A3E902198C7462120AF3121B32
:1014A000BE120AF31210E97406120AF3121BBE12DE
:1014B0000AF3E02402FAA3E03400FB7462120AF398
:1014C000121BC47402120AF31210E9E849700C747A
:1014D00002120AF37425F0A37402F0121AC1500428
:1014E0007E107F277408120AF3E4F0A380087408C2
:1014F000120AF3121ACBF07402120AF3121B1288AA
:10150000828983A3AA82AB837402120AF3121BCCD2
:1015100088828983E0600A7408120AF3121B1B4058
:10152000CD7402120AF3121AE27412120AF31210A4
:10153000E97408120AF3121B5AF97412120AF3E042
:1015400028F8A3E039F9740202148F740D120AF31B
:10155000E06008EE4F70047E017F007462120AF3AF
:10156000121BBE120AF3121C12120AF3E06470700E
:10157000387406120AF3121BB4120AF3121BED128E
:101580000AF3E02402121B76120AF3121B7F1210D8
:10159000E99002541209B9741A120AF31209C574B7
:1015A00005120AF3E4F0021690EAA2E07406501B5A
:1015B000120AF3121B311209B97414120AF3120938
:1015C000C57406120AF3E024048012120AF3121BF7
:1015D000B4120AF3121BED120AF3E02402121B7676
:1015E000120AF3121B7F121C12120AF3E0646F70CE
:1015F00005900258809EE06475709690025C80941D
:101600007462120AF3121BBE120AF31210E9EAA264
:10161000E074065016120AF3121B31780812099B67
:101620007406120AF3E02404F8801B120AF3121B5A
:1016300054A3E0F5093395E0F50AF50B7406120A98
:10164000F3E024020808121B77120AF3121BFA12A5
:101650000AF378081209AA900210780812012540AE
:10166000217405120AF3742DF07414120AF3780829
:1016700012099B780812098A7414120AF378081266
:1016800009AA90025C1209B9741A120AF31209C568
:10169000744F120AF3A882A9837402120AF312107B
:1016A000E97412120AF3121BFD120AF378081209E8
:1016B0009BE5084509450A450B60097411120AF3B8
:1016C000740180067411120AF3E4F0EE4F7008E022
:1016D000A2E040030217847402120AF3121B2B12B9
:1016E0000AF3121BFD120AF3780C12099B741A12EA
:1016F0000AF3780812099B780C79081209177414F8
:101700002508F58274023509F583E0C0E074021201
:101710000AF3121B31D0E0F07414120AF3780C12A1
:10172000099B741A120AF3780812099B780C79083D
:101730001209177414120AF3780C1209AA741412FD
:101740000AF3780812099BE5084509450A450B701C
:1017500086121AC1502E740E120AF3E06026740528
:10176000120AF3E06004D2F08002C2F0740A120A96
:10177000F3121AD4800E7402120AF3121BDE120A3C
:10178000F3121B3E7402120AF3121AE2744F120A89
:10179000F3C082C0837402120AF3121B02D083D0FA
:1017A00082E582C39AFAE5839BFBC3EA9EEB121B98
:1017B0002440C3740D120AF3E0700302198D7411F2
:1017C000120AF3E0A2E0400302198D7404120AF336
:1017D000E064786005E06458701E12108CE824FF05
:1017E00018E934FFF97402120AF3121BDE120AF32D
:1017F000121B31743002198CE0646F600302198D82
:101800007402120AF3121B926430700302198D8065
:10181000D47408120AF37401F0A3E4F07404120AF9
:10182000F3E024FEF0EE4F700F7E018012E4F074BE
:1018300008120AF3E4F0A3F0121AC150047E067FE6
:10184000007462120AF3121BBE120AF31210E9743A
:1018500006120AF3121B31780C12099B7406120A45
:10186000F3E02404121B76120AF3121BFA120AF395
:10187000780C1209AA900210780812099B780C794A
:101880000812032950227405120AF3742DF07414FF
:10189000120AF3780812099BE50BB2E7F50B7414F2
:1018A000120AF378081209AA740A120AF3121B1218
:1018B000741E120AF3E58228F8E58339F9740212DE
:1018C0000AF31210E9740D120AF3E0F50878081211
:1018D0000BB97409120AF3E0F5087808120BB97411
:1018E00004120AF3120BC88E088F097808120BB580
:1018F000740A120AF3E0F9741A120AF31209B912FF
:1019000001197406120ABE7412120AF3121BCC7467
:101910000E120AF3E060767405120AF3E06004D256
:10192000F08002C2F0740A120AF3121AD47412126E
:101930000AF3C082C0837402120AF3121B12D0830E
:10194000D082E0C398F8A3E099F9C3E89EE9121B9E
:1019500024503A7402120AF3121B2B120AF3121BC0
:10196000DE120AF3121B3E80C48510828511831299
:101970001AEB1210E27402120AF37434F0A3740228
:10198000F07412120AF37437F0A37402F074121296
:101990000AF3C082C0837402120AF3121B12D083AE
:1019A000D082E0C398FEA3E099FF740A120AF312F2
:1019B0001B1B500A7408120AF3E4F0A3803074056C
:1019C000120AF3E06004D2F08002C2F0740A120A34
:1019D000F3E0C39EF8A3E09FF9A2F0E433FAE89A9B
:1019E000F8E99400F97408120AF3E8F0A3E9F07436
:1019F0000C120AF3E0702B80197460120AF3121BA8
:101A000008120AF3121B31120AFD740F120AF312A4
:101A10001C207408120AF3121BD2120AF31210BF10
:101A200050D77405120AF3E060507460120AF31282
:101A30001B027405120AF3E0F97418120AF3121B60
:101A400031120AFD802C7460120AF3121B02740218
:101A5000120AF3121B4BF97418120AF3121B3112FB
:101A60000AFD7402120AF3121AF47402120AF31233
:101A700010E9740F120AF3121C20EE24FF1EEF343B
:101A8000FFFFC3121AC350BE740C120AF3E07003B6
:101A900002115D7408120AF3121BD2120AF312101B
:101AA000BF500302115D7460120AF3121B08120A80
:101AB000F3121B31120AFD740F120AF3121C20805C
:101AC000D2C3EF9400A2D265D03322E02401F0A368
:101AD000E0340022A2F0E433F8E098FEA3E09400A2
:101AE000FF22121AE622121AEBF922E024FFF8A3D1
:101AF000E034FF22E0121AF9222401F8A3E03400B6
:101B0000F922E0FAA3E0FB22E0FAA3E0FB792074DB
:101B10001822121B6722121B67E822C3E09EA3E073
:101B2000121B24229FA2D265D03322121AE674021D
:101B300022121B3522E0F8A3E0F583888222121BD3
:101B4000357430F022851082851183121B4F2212CA
:101B50001B6DE022121B4FF50822121B67C3E4988D
:101B6000F8E49922121B6DE0F8A3E0F922E0F8A353
:101B7000E0F583888222F8A3E03400F9746222122F
:101B80001B8322E0FAA3E0F5838A822285108285F6
:101B90001183121B83E022121B83E0FAA3E02212BE
:101BA0001B4F121B3622121B4F2402F8A3E03400F5
:101BB000F9746222121B64E8FAE9FB741422121B06
:101BC00064740622E0FCA3E0F5838C82EAF0A3EBC8
:101BD000F022E024FFF0A3E034FFF0740822E8F0E4
:101BE000A3E9F074022212110AF8A3E022EAF0A39A
:101BF000EBF0A3E4F0A3F0740622121B83E8F0A339
:101C0000E9F0741422851082851183E02401081202
:101C10001C38E8F0A3E9F074042285108285118352
:101C2000E02401F0A3E03400F0221211062401F8B0
:101C3000121C38E8F0A3E922A3E03400F9851082F1
:101C40008511832253C6BFE59EA2E640FA53C6B86B
:101C500002006875F10075F33C53FF3F43868043F3
:101C6000C50B43C2D8D2E943864043A8840200682A
:101C700074F7120AFF78007900801E8A828B83E055
:101C8000F5C18A828B83A3AA82AB83A2E950FCC2EE
:101C9000E9E82401F8E93400F9C3E89CE99D40DB58
:101CA00075C10AA2E950FCC2E97F01020B6BC08238
:101CB000C0837400F59AF5B8F5A81200E390624B62
:101CC0007401F09061A97401F0D083D082020068A1
:101CD00053F33F53FD3F02006874F4120AFFE5B668
:101CE000FCC28D75B63BA28D50FCA8BA8882758364
:101CF00000A882A983E5BBFA7B00E4CAFBEA48F8A6
:101D0000EB49F98808890974047808120A99A80827
:101D1000A9098CB688088909E4F50AF50B78081238
:101D20000166AA08AB09AC0AAD0B7F04020B6B7409
:101D3000FA120AA81200E91200F51200FB021DCDEA
:101D40001201018A088B098C0A8D0B780C79081214
:101D5000051A0EEEC3948040E79002087808120935
:101D60009B780C790812073190020C780812099BB5
:101D7000780C790812073175080675090078081281
:101D80000BB57C007D007402120AF3AA82AB8312A9
:101D900001077402120ABE780C120BB17C007D029E
:101DA0007404120AF3AA82AB831201137404120A98
:101DB000BE7C067D00851082851183AA82AB8312CA
:101DC00000EF7C017D007A067B021200EF9002108A
:101DD000780C12099B7E00021D53C082C0838A8248
:101DE0008B83121E71E9F08A828B83E02401FCA3AD
:101DF000E03400FD8A828B83ECF0A3EDF0D083D039
:101E00008202006874F6120AFF74FC120AA87402B7
:101E1000120AF3EAF0A3EBF0ECFAEDFB740E120AEF
:101E2000F3A882A983851082851183E8F0A3E9F0E5
:101E30008510828511838582088583097808120BB5
:101E4000B57404120AF38582088583097808120B99
:101E5000B57C0D7D0112011F7404120ABE740212BA
:101E60000AF3121E71E4F07404120ABE7F02020B20
:101E70006BE0F8A3E0F58388822274F7120AFF74FE
:101E800009120AF3E0F8A3E0F98A828B838003EC5D
:101E9000F0A3E8FEE9FFEE24FF18EF34FFF9EE4F60
:071EA00070ED7F01020B6BE6
:0400000500000050A7
:00000001FF
